:100000000C9434000C943E000C943E000C943E0082
:100010000C943E000C943E000C943E000C943E0068
:100020000C943E000C943E000C943E000C943E0058
:100030000C943E000C943E000C943E000C943E0048
:100040000C943E000C943E000C943E000C943E0038
:100050000C943E000C943E000C943E000C943E0028
:100060000C943E000C943E0011241FBECFEFD8E04C
:10007000DEBFCDBF0E9452000C948B000C94000098
:1000800096B1892319F080E090E0089581E090E036
:10009000089596B1892319F080E090E0089581E0F9
:1000A00090E0089587B18C7F87B984B1836084B96B
:1000B00081E00E944000892B41F082E00E944900CB
:1000C000892B19F083E085B9F3CF81E00E944000CD
:1000D000892B61F082E00E944900892B39F485B1B7
:1000E000816085B985B18D7F85B9E2CF81E00E94BD
:1000F0004000892B61F482E00E944900892B39F08D
:1001000085B18E7F85B985B1826085B9D1CF85B142
:0A0110008C7F85B9CDCFF894FFCFA6
:00000001FF
