:100000000C9434000C943E000C943E000C943E0082
:100010000C943E000C943E000C943E000C943E0068
:100020000C943E000C943E000C943E000C943E0058
:100030000C943E000C943E000C943E000C943E0048
:100040000C943E000C943E000C943E000C943E0038
:100050000C943E000C943E000C943E000C943E0028
:100060000C943E000C943E0011241FBECFEFD8E04C
:10007000DEBFCDBF0E9440000C9458000C940000DD
:100080008FE08AB91BB82FEF33E284EF90E0215064
:10009000304080409040D9F700C000000E945100DD
:1000A000F2CF8BB18A7F8BB98BB18A608BB90895FF
:0400B000F894FFCFF2
:00000001FF
