:100000000C9434000C943E000C943E000C943E0082
:100010000C943E000C943E000C943E000C943E0068
:100020000C943E000C943E000C943E000C943E0058
:100030000C943E000C943E000C943E000C943E0048
:100040000C943E000C943E000C943E000C943E0038
:100050000C943E000C943E000C943E000C943E0028
:100060000C943E000C943E0011241FBECFEFD8E04C
:10007000DEBFCDBF0E9440000C948B000C940000AA
:1000800087B1837F87B984B18C6084B984E00E9492
:100090007900892B41F088E00E948200892B19F0B9
:1000A0008CE085B9F3CF84E00E947900892B61F060
:1000B00088E00E948200892B39F485B1846085B97B
:1000C00085B1877F85B9E2CF84E00E947900892BD2
:1000D00061F488E00E948200892B39F085B18B7F22
:1000E00085B985B1886085B9D1CF85B1837F85B960
:1000F000CDCF96B1892319F081E090E0089580E09A
:1001000090E0089596B1892319F081E090E0089578
:0A01100080E090E00895F894FFCF1E
:00000001FF
