:100000000C9434000C943E000C943E000C943E0082
:100010000C943E000C943E000C943E000C943E0068
:100020000C943E000C943E000C943E000C943E0058
:100030000C943E000C943E000C943E000C943E0048
:100040000C943E000C943E000C943E000C943E0038
:100050000C943E000C943E000C943E000C943E0028
:100060000C943E000C943E0011241FBECFEFD8E04C
:10007000DEBFCDBF0E9440000C9469000C940000CC
:100080000E94530066EE80E00E94660066EE84E601
:100090000E94660066EE80E00E94660066EE8FEFCA
:1000A0000E946600EFCF8AB180668AB984B583600A
:1000B00084BD84B5806884BD84B5806284BD85B507
:1000C000816085BD16BC17BC18BC089587BD68BD8E
:0600D0000895F894FFCF33
:00000001FF
