:100000000C9434000C943E000C943E000C943E0082
:100010000C943E000C943E000C943E000C943E0068
:100020000C943E000C943E000C943E000C943E0058
:100030000C943E000C943E000C943E000C943E0048
:100040000C943E000C943E000C943E000C943E0038
:100050000C943E000C943E000C943E000C943E0028
:100060000C943E000C943E0011241FBECFEFD8E04C
:10007000DEBFCDBF0E9452000C9471010C940000B1
:1000800096B1892319F080E090E0089581E090E036
:10009000089596B1892319F080E090E0089581E0F9
:1000A00090E0089587B1807F87B98AB18C698AB959
:1000B0000E945E0181E00E944000892B19F0C0E09F
:1000C000D0E002C0C1E0D0E060EF80EF0E946E019E
:1000D0003CC081E00E944000892B81F00E944C01CD
:1000E0002FEF88EF95E1215080409040E1F700C06C
:1000F00000000E945A01C0E0D0E0B1C084E00E943C
:100100003301892B39F488E00E943C01892B11F4DA
:100110000E94530184E00E943301892B39F488E066
:100120000E943C01892B11F00E944C0184E00E9446
:100130003301892B41F088E00E943C01892B19F49E
:100140000E94450102C00E945A01C130D10509F246
:1001500086C084E00E943301892B29F488E00E9444
:100160003C01892B79F10E9453018FE39CE90197AF
:10017000F1F700C000000E945A019FEF29E688E1D4
:10018000915020408040E1F700C0000062ED82ED18
:100190000E946E0102C00E944C0188E00E943C0156
:1001A000892BC9F30E945A010E9445019FEF20E765
:1001B00082E0915020408040E1F700C000000E94A2
:1001C0005A0178CF81E00E944000892B89F482E0B7
:1001D0000E944900892B61F40E9445019FEF20E7AE
:1001E00082E0915020408040E1F700C0000037C01D
:1001F00081E00E944000892B89F482E00E9449003E
:10020000892B61F00E9453019FEF20E782E091501B
:1002100020408040E1F700C0000021C081E00E9442
:100220004000892B89F082E00E944900892B61F40B
:100230000E9445019FEF20E782E0915020408040DE
:10024000E1F700C000000BC00E944C019FEF20E7C7
:1002500082E0915020408040E1F700C000002097EC
:1002600009F477CF27CF96B1892319F081E090E088
:10027000089580E090E0089596B1892319F081E017
:1002800090E0089580E090E008958BB1837E8BB973
:100290008BB180688BB908958BB183778BB98BB1A3
:1002A00080618BB908958BB1837F8BB98BB18069E5
:1002B0008BB908958BB183768BB908958AB1806626
:1002C0008AB984B5836084BD84B5806884BD84B5F3
:1002D000806284BD85B5836085BD089587BD68BD96
:0602E0000895F894FFCF21
:00000001FF
